{
  "contractName": "LendingAndBorrowing",
  "abi": [
    {
      "inputs": [
        {
          "internalType": "address",
          "name": "_token",
          "type": "address"
        }
      ],
      "stateMutability": "nonpayable",
      "type": "constructor"
    },
    {
      "anonymous": false,
      "inputs": [
        {
          "indexed": false,
          "internalType": "address",
          "name": "sender",
          "type": "address"
        },
        {
          "indexed": false,
          "internalType": "uint256",
          "name": "amountInDollars",
          "type": "uint256"
        },
        {
          "indexed": false,
          "internalType": "uint256",
          "name": "totalAmountAvailableForBorrowInDollars",
          "type": "uint256"
        },
        {
          "indexed": false,
          "internalType": "bool",
          "name": "userPresent",
          "type": "bool"
        },
        {
          "indexed": false,
          "internalType": "int256",
          "name": "userIndex",
          "type": "int256"
        },
        {
          "indexed": false,
          "internalType": "address[]",
          "name": "borrowers",
          "type": "address[]"
        },
        {
          "indexed": false,
          "internalType": "uint256",
          "name": "currentUserTokenBorrowedAmount",
          "type": "uint256"
        }
      ],
      "name": "Borrow",
      "type": "event"
    },
    {
      "anonymous": false,
      "inputs": [
        {
          "indexed": false,
          "internalType": "address",
          "name": "sender",
          "type": "address"
        },
        {
          "indexed": false,
          "internalType": "uint256",
          "name": "amountInDollars",
          "type": "uint256"
        },
        {
          "indexed": false,
          "internalType": "uint256",
          "name": "totalAmountAvailableForBorrowInDollars",
          "type": "uint256"
        }
      ],
      "name": "BorrowTesting1",
      "type": "event"
    },
    {
      "anonymous": false,
      "inputs": [
        {
          "indexed": false,
          "internalType": "address",
          "name": "sender",
          "type": "address"
        },
        {
          "indexed": false,
          "internalType": "uint256",
          "name": "balance",
          "type": "uint256"
        },
        {
          "indexed": false,
          "internalType": "uint256",
          "name": "amount",
          "type": "uint256"
        }
      ],
      "name": "BorrowTesting2",
      "type": "event"
    },
    {
      "anonymous": false,
      "inputs": [
        {
          "indexed": true,
          "internalType": "address",
          "name": "previousOwner",
          "type": "address"
        },
        {
          "indexed": true,
          "internalType": "address",
          "name": "newOwner",
          "type": "address"
        }
      ],
      "name": "OwnershipTransferred",
      "type": "event"
    },
    {
      "anonymous": false,
      "inputs": [
        {
          "indexed": false,
          "internalType": "address",
          "name": "sender",
          "type": "address"
        },
        {
          "indexed": false,
          "internalType": "int256",
          "name": "index",
          "type": "int256"
        },
        {
          "indexed": false,
          "internalType": "uint256",
          "name": "tokenAmountBorrowed",
          "type": "uint256"
        },
        {
          "indexed": false,
          "internalType": "uint256",
          "name": "totalTokenAmountToCollectFromUser",
          "type": "uint256"
        },
        {
          "indexed": false,
          "internalType": "address[]",
          "name": "borrowers",
          "type": "address[]"
        }
      ],
      "name": "PayDebt",
      "type": "event"
    },
    {
      "anonymous": false,
      "inputs": [
        {
          "indexed": false,
          "internalType": "address",
          "name": "sender",
          "type": "address"
        },
        {
          "indexed": false,
          "internalType": "int256",
          "name": "index",
          "type": "int256"
        }
      ],
      "name": "RepayTesting1",
      "type": "event"
    },
    {
      "anonymous": false,
      "inputs": [
        {
          "indexed": false,
          "internalType": "address",
          "name": "sender",
          "type": "address"
        },
        {
          "indexed": false,
          "internalType": "uint256",
          "name": "tokenBorrowed",
          "type": "uint256"
        }
      ],
      "name": "RepayTesting2",
      "type": "event"
    },
    {
      "anonymous": false,
      "inputs": [
        {
          "indexed": false,
          "internalType": "address",
          "name": "sender",
          "type": "address"
        },
        {
          "indexed": false,
          "internalType": "address[]",
          "name": "lenders",
          "type": "address[]"
        },
        {
          "indexed": false,
          "internalType": "uint256",
          "name": "currentUserTokenLentAmount",
          "type": "uint256"
        }
      ],
      "name": "Supply",
      "type": "event"
    },
    {
      "anonymous": false,
      "inputs": [
        {
          "indexed": false,
          "internalType": "address",
          "name": "sender",
          "type": "address"
        },
        {
          "indexed": false,
          "internalType": "uint256",
          "name": "amount",
          "type": "uint256"
        },
        {
          "indexed": false,
          "internalType": "uint256",
          "name": "tokenToWithdrawInDollars",
          "type": "uint256"
        },
        {
          "indexed": false,
          "internalType": "uint256",
          "name": "availableToWithdraw",
          "type": "uint256"
        },
        {
          "indexed": false,
          "internalType": "uint256",
          "name": "totalAmountLentInDollars",
          "type": "uint256"
        },
        {
          "indexed": false,
          "internalType": "uint256",
          "name": "larTokenToRemove",
          "type": "uint256"
        }
      ],
      "name": "Withdraw",
      "type": "event"
    },
    {
      "anonymous": false,
      "inputs": [
        {
          "indexed": false,
          "internalType": "address",
          "name": "sender",
          "type": "address"
        },
        {
          "indexed": false,
          "internalType": "uint256",
          "name": "tokentoWithdrawInDollars",
          "type": "uint256"
        },
        {
          "indexed": false,
          "internalType": "uint256",
          "name": "availableToWithdraw",
          "type": "uint256"
        }
      ],
      "name": "WithdrawTesting",
      "type": "event"
    },
    {
      "inputs": [
        {
          "internalType": "uint256",
          "name": "",
          "type": "uint256"
        }
      ],
      "name": "borrowers",
      "outputs": [
        {
          "internalType": "address",
          "name": "",
          "type": "address"
        }
      ],
      "stateMutability": "view",
      "type": "function",
      "constant": true
    },
    {
      "inputs": [],
      "name": "larToken",
      "outputs": [
        {
          "internalType": "contract IERC20",
          "name": "",
          "type": "address"
        }
      ],
      "stateMutability": "view",
      "type": "function",
      "constant": true
    },
    {
      "inputs": [
        {
          "internalType": "uint256",
          "name": "",
          "type": "uint256"
        }
      ],
      "name": "lenders",
      "outputs": [
        {
          "internalType": "address",
          "name": "",
          "type": "address"
        }
      ],
      "stateMutability": "view",
      "type": "function",
      "constant": true
    },
    {
      "inputs": [],
      "name": "noOfTokensBorrowed",
      "outputs": [
        {
          "internalType": "uint256",
          "name": "",
          "type": "uint256"
        }
      ],
      "stateMutability": "view",
      "type": "function",
      "constant": true
    },
    {
      "inputs": [],
      "name": "noOfTokensLent",
      "outputs": [
        {
          "internalType": "uint256",
          "name": "",
          "type": "uint256"
        }
      ],
      "stateMutability": "view",
      "type": "function",
      "constant": true
    },
    {
      "inputs": [],
      "name": "owner",
      "outputs": [
        {
          "internalType": "address",
          "name": "",
          "type": "address"
        }
      ],
      "stateMutability": "view",
      "type": "function",
      "constant": true
    },
    {
      "inputs": [],
      "name": "renounceOwnership",
      "outputs": [],
      "stateMutability": "nonpayable",
      "type": "function"
    },
    {
      "inputs": [
        {
          "internalType": "address",
          "name": "",
          "type": "address"
        }
      ],
      "name": "tokenToPriceFeed",
      "outputs": [
        {
          "internalType": "address",
          "name": "",
          "type": "address"
        }
      ],
      "stateMutability": "view",
      "type": "function",
      "constant": true
    },
    {
      "inputs": [
        {
          "internalType": "uint256",
          "name": "",
          "type": "uint256"
        },
        {
          "internalType": "address",
          "name": "",
          "type": "address"
        }
      ],
      "name": "tokensBorrowed",
      "outputs": [
        {
          "internalType": "address",
          "name": "",
          "type": "address"
        }
      ],
      "stateMutability": "view",
      "type": "function",
      "constant": true
    },
    {
      "inputs": [
        {
          "internalType": "address",
          "name": "",
          "type": "address"
        },
        {
          "internalType": "address",
          "name": "",
          "type": "address"
        }
      ],
      "name": "tokensBorrowedAmount",
      "outputs": [
        {
          "internalType": "uint256",
          "name": "",
          "type": "uint256"
        }
      ],
      "stateMutability": "view",
      "type": "function",
      "constant": true
    },
    {
      "inputs": [
        {
          "internalType": "uint256",
          "name": "",
          "type": "uint256"
        }
      ],
      "name": "tokensForBorrowing",
      "outputs": [
        {
          "internalType": "address",
          "name": "tokenAddress",
          "type": "address"
        },
        {
          "internalType": "uint256",
          "name": "LTV",
          "type": "uint256"
        },
        {
          "internalType": "uint256",
          "name": "stableRate",
          "type": "uint256"
        },
        {
          "internalType": "string",
          "name": "name",
          "type": "string"
        }
      ],
      "stateMutability": "view",
      "type": "function",
      "constant": true
    },
    {
      "inputs": [
        {
          "internalType": "uint256",
          "name": "",
          "type": "uint256"
        }
      ],
      "name": "tokensForLending",
      "outputs": [
        {
          "internalType": "address",
          "name": "tokenAddress",
          "type": "address"
        },
        {
          "internalType": "uint256",
          "name": "LTV",
          "type": "uint256"
        },
        {
          "internalType": "uint256",
          "name": "stableRate",
          "type": "uint256"
        },
        {
          "internalType": "string",
          "name": "name",
          "type": "string"
        }
      ],
      "stateMutability": "view",
      "type": "function",
      "constant": true
    },
    {
      "inputs": [
        {
          "internalType": "uint256",
          "name": "",
          "type": "uint256"
        },
        {
          "internalType": "address",
          "name": "",
          "type": "address"
        }
      ],
      "name": "tokensLent",
      "outputs": [
        {
          "internalType": "address",
          "name": "",
          "type": "address"
        }
      ],
      "stateMutability": "view",
      "type": "function",
      "constant": true
    },
    {
      "inputs": [
        {
          "internalType": "address",
          "name": "",
          "type": "address"
        },
        {
          "internalType": "address",
          "name": "",
          "type": "address"
        }
      ],
      "name": "tokensLentAmount",
      "outputs": [
        {
          "internalType": "uint256",
          "name": "",
          "type": "uint256"
        }
      ],
      "stateMutability": "view",
      "type": "function",
      "constant": true
    },
    {
      "inputs": [
        {
          "internalType": "address",
          "name": "newOwner",
          "type": "address"
        }
      ],
      "name": "transferOwnership",
      "outputs": [],
      "stateMutability": "nonpayable",
      "type": "function"
    },
    {
      "inputs": [
        {
          "internalType": "string",
          "name": "name",
          "type": "string"
        },
        {
          "internalType": "address",
          "name": "tokenAddress",
          "type": "address"
        },
        {
          "internalType": "uint256",
          "name": "LTV",
          "type": "uint256"
        },
        {
          "internalType": "uint256",
          "name": "borrowStableRate",
          "type": "uint256"
        }
      ],
      "name": "addTokensForLending",
      "outputs": [],
      "stateMutability": "nonpayable",
      "type": "function"
    },
    {
      "inputs": [
        {
          "internalType": "string",
          "name": "name",
          "type": "string"
        },
        {
          "internalType": "address",
          "name": "tokenAddress",
          "type": "address"
        },
        {
          "internalType": "uint256",
          "name": "LTV",
          "type": "uint256"
        },
        {
          "internalType": "uint256",
          "name": "borrowStableRate",
          "type": "uint256"
        }
      ],
      "name": "addTokensForBorrowing",
      "outputs": [],
      "stateMutability": "nonpayable",
      "type": "function"
    },
    {
      "inputs": [
        {
          "internalType": "address",
          "name": "tokenAddress",
          "type": "address"
        },
        {
          "internalType": "address",
          "name": "tokenToUsdPriceFeed",
          "type": "address"
        }
      ],
      "name": "addTokenToPriceFeedMapping",
      "outputs": [],
      "stateMutability": "nonpayable",
      "type": "function"
    },
    {
      "inputs": [],
      "name": "getLendersArray",
      "outputs": [
        {
          "internalType": "address[]",
          "name": "",
          "type": "address[]"
        }
      ],
      "stateMutability": "view",
      "type": "function",
      "constant": true
    },
    {
      "inputs": [],
      "name": "getBorrowersArray",
      "outputs": [
        {
          "internalType": "address[]",
          "name": "",
          "type": "address[]"
        }
      ],
      "stateMutability": "view",
      "type": "function",
      "constant": true
    },
    {
      "inputs": [],
      "name": "getTokensForLendingArray",
      "outputs": [
        {
          "components": [
            {
              "internalType": "address",
              "name": "tokenAddress",
              "type": "address"
            },
            {
              "internalType": "uint256",
              "name": "LTV",
              "type": "uint256"
            },
            {
              "internalType": "uint256",
              "name": "stableRate",
              "type": "uint256"
            },
            {
              "internalType": "string",
              "name": "name",
              "type": "string"
            }
          ],
          "internalType": "struct LendingAndBorrowing.Token[]",
          "name": "",
          "type": "tuple[]"
        }
      ],
      "stateMutability": "view",
      "type": "function",
      "constant": true
    },
    {
      "inputs": [],
      "name": "getTokensForBorrowingArray",
      "outputs": [
        {
          "components": [
            {
              "internalType": "address",
              "name": "tokenAddress",
              "type": "address"
            },
            {
              "internalType": "uint256",
              "name": "LTV",
              "type": "uint256"
            },
            {
              "internalType": "uint256",
              "name": "stableRate",
              "type": "uint256"
            },
            {
              "internalType": "string",
              "name": "name",
              "type": "string"
            }
          ],
          "internalType": "struct LendingAndBorrowing.Token[]",
          "name": "",
          "type": "tuple[]"
        }
      ],
      "stateMutability": "view",
      "type": "function",
      "constant": true
    },
    {
      "inputs": [
        {
          "internalType": "address",
          "name": "tokenAddress",
          "type": "address"
        },
        {
          "internalType": "uint256",
          "name": "amount",
          "type": "uint256"
        }
      ],
      "name": "lend",
      "outputs": [],
      "stateMutability": "payable",
      "type": "function",
      "payable": true
    },
    {
      "inputs": [
        {
          "internalType": "uint256",
          "name": "amount",
          "type": "uint256"
        },
        {
          "internalType": "address",
          "name": "tokenAddress",
          "type": "address"
        }
      ],
      "name": "borrow",
      "outputs": [],
      "stateMutability": "nonpayable",
      "type": "function"
    },
    {
      "inputs": [
        {
          "internalType": "address",
          "name": "tokenAddress",
          "type": "address"
        },
        {
          "internalType": "uint256",
          "name": "amount",
          "type": "uint256"
        }
      ],
      "name": "payDebt",
      "outputs": [],
      "stateMutability": "nonpayable",
      "type": "function"
    },
    {
      "inputs": [
        {
          "internalType": "address",
          "name": "tokenAddress",
          "type": "address"
        },
        {
          "internalType": "uint256",
          "name": "amount",
          "type": "uint256"
        }
      ],
      "name": "withdraw",
      "outputs": [],
      "stateMutability": "nonpayable",
      "type": "function"
    },
    {
      "inputs": [
        {
          "internalType": "address",
          "name": "user",
          "type": "address"
        }
      ],
      "name": "getTokenAvailableToWithdraw",
      "outputs": [
        {
          "internalType": "uint256",
          "name": "",
          "type": "uint256"
        }
      ],
      "stateMutability": "view",
      "type": "function",
      "constant": true
    },
    {
      "inputs": [
        {
          "internalType": "address",
          "name": "user",
          "type": "address"
        }
      ],
      "name": "getRemainingCollateral",
      "outputs": [
        {
          "internalType": "uint256",
          "name": "",
          "type": "uint256"
        }
      ],
      "stateMutability": "view",
      "type": "function",
      "constant": true
    },
    {
      "inputs": [
        {
          "internalType": "address",
          "name": "user",
          "type": "address"
        }
      ],
      "name": "getTotalAmountBorrowedInDollars",
      "outputs": [
        {
          "internalType": "uint256",
          "name": "",
          "type": "uint256"
        }
      ],
      "stateMutability": "view",
      "type": "function",
      "constant": true
    },
    {
      "inputs": [
        {
          "internalType": "address",
          "name": "user",
          "type": "address"
        }
      ],
      "name": "getTotalAmountLentInDollars",
      "outputs": [
        {
          "internalType": "uint256",
          "name": "",
          "type": "uint256"
        }
      ],
      "stateMutability": "view",
      "type": "function",
      "constant": true
    },
    {
      "inputs": [
        {
          "internalType": "address",
          "name": "tokenAddress",
          "type": "address"
        },
        {
          "internalType": "uint256",
          "name": "tokenBorrowed",
          "type": "uint256"
        }
      ],
      "name": "interest",
      "outputs": [
        {
          "internalType": "uint256",
          "name": "",
          "type": "uint256"
        }
      ],
      "stateMutability": "view",
      "type": "function",
      "constant": true
    },
    {
      "inputs": [
        {
          "internalType": "address",
          "name": "tokenAddress",
          "type": "address"
        }
      ],
      "name": "getTokenFrom",
      "outputs": [
        {
          "components": [
            {
              "internalType": "address",
              "name": "tokenAddress",
              "type": "address"
            },
            {
              "internalType": "uint256",
              "name": "LTV",
              "type": "uint256"
            },
            {
              "internalType": "uint256",
              "name": "stableRate",
              "type": "uint256"
            },
            {
              "internalType": "string",
              "name": "name",
              "type": "string"
            }
          ],
          "internalType": "struct LendingAndBorrowing.Token",
          "name": "",
          "type": "tuple"
        }
      ],
      "stateMutability": "view",
      "type": "function",
      "constant": true
    },
    {
      "inputs": [
        {
          "internalType": "address",
          "name": "user",
          "type": "address"
        }
      ],
      "name": "getUserTotalAmountAvailableForBorrowInDollars",
      "outputs": [
        {
          "internalType": "uint256",
          "name": "",
          "type": "uint256"
        }
      ],
      "stateMutability": "view",
      "type": "function",
      "constant": true
    },
    {
      "inputs": [
        {
          "internalType": "uint256",
          "name": "amount",
          "type": "uint256"
        },
        {
          "internalType": "address",
          "name": "tokenAddress",
          "type": "address"
        }
      ],
      "name": "getAmountInDollars",
      "outputs": [
        {
          "internalType": "uint256",
          "name": "",
          "type": "uint256"
        }
      ],
      "stateMutability": "view",
      "type": "function",
      "constant": true
    },
    {
      "inputs": [
        {
          "internalType": "address",
          "name": "tokenAddress",
          "type": "address"
        }
      ],
      "name": "oneTokenEqualsHowManyDollars",
      "outputs": [
        {
          "internalType": "uint256",
          "name": "",
          "type": "uint256"
        },
        {
          "internalType": "uint256",
          "name": "",
          "type": "uint256"
        }
      ],
      "stateMutability": "view",
      "type": "function",
      "constant": true
    },
    {
      "inputs": [
        {
          "internalType": "address",
          "name": "currentUser",
          "type": "address"
        },
        {
          "internalType": "address",
          "name": "tokenAddress",
          "type": "address"
        },
        {
          "internalType": "uint256",
          "name": "noOfTokenslentOrBorrowed",
          "type": "uint256"
        },
        {
          "internalType": "string",
          "name": "_tokensLentOrBorrowed",
          "type": "string"
        }
      ],
      "name": "hasLentOrBorrowedToken",
      "outputs": [
        {
          "internalType": "bool",
          "name": "",
          "type": "bool"
        }
      ],
      "stateMutability": "view",
      "type": "function",
      "constant": true
    },
    {
      "inputs": [
        {
          "internalType": "address",
          "name": "tokenAddres",
          "type": "address"
        }
      ],
      "name": "getTotalTokenSupplied",
      "outputs": [
        {
          "internalType": "uint256",
          "name": "",
          "type": "uint256"
        }
      ],
      "stateMutability": "view",
      "type": "function",
      "constant": true
    },
    {
      "inputs": [
        {
          "internalType": "address",
          "name": "tokenAddress",
          "type": "address"
        }
      ],
      "name": "getTotalTokenBorrowed",
      "outputs": [
        {
          "internalType": "uint256",
          "name": "",
          "type": "uint256"
        }
      ],
      "stateMutability": "view",
      "type": "function",
      "constant": true
    }
  ],
  "bytecode": "0x60806040526000600b556000600c5534801561001a57600080fd5b50604051613ef1380380613ef1833981016040819052610039916100d4565b61005b61004d640100000000610080810204565b640100000000610084810204565b600a8054600160a060020a031916600160a060020a0392909216919091179055610104565b3390565b60008054600160a060020a03838116600160a060020a0319831681178455604051919092169283917f8be0079c531659141344cd1fd0a4f28419497f9722a3daafe3b4186f6b6457e09190a35050565b6000602082840312156100e657600080fd5b8151600160a060020a03811681146100fd57600080fd5b9392505050565b613dde806101136000396000f3fe6080604052600436106102295760003560e060020a900480638da5cb5b11610127578063c4543b67116100af578063fb24af7f11610073578063fb24af7f146106e3578063fc757b8814610703578063fdc8070e14610730578063fe726f8014610765578063ff2f44651461078557600080fd5b8063c4543b671461062d578063cd9274091461064d578063d7a9a25c1461068e578063f2fde38b146106a3578063f3fef3a3146106c357600080fd5b8063a8b74152116100f6578063a8b741521461057f578063aac0bf96146105b7578063ab56ee66146105d7578063b3d16f8d146105f7578063b9f09bb81461061757600080fd5b80638da5cb5b1461050e578063929eea211461052c578063a2fb342d1461054c578063a7772b971461055f57600080fd5b80634b3fd148116101b557806374fd0ce01161017957806374fd0ce01461042a5780637924d93f146104835780637b9ec997146104a35780638078f22c146104c35780638cf1806b146104f957600080fd5b80634b3fd1481461038f5780634fa9f5a4146103af578063541d8338146103df5780636352b568146103f5578063715018a61461041557600080fd5b80631818dd0b116101fc5780631818dd0b146102d15780631c9e5224146102f357806327e8e184146103155780633c9d50931461034d578063447007fd1461036f57600080fd5b806306254c6a1461022e57806308ae7fc21461026157806311f4f5d3146102915780631419f093146102b1575b600080fd5b34801561023a57600080fd5b5061024e6102493660046134ed565b6107a5565b6040519081526020015b60405180910390f35b34801561026d57600080fd5b5061028161027c366004613508565b61082f565b6040516102589493929190613571565b34801561029d57600080fd5b5061024e6102ac36600461359f565b610901565b3480156102bd57600080fd5b5061024e6102cc3660046134ed565b610934565b3480156102dd57600080fd5b506102f16102ec36600461359f565b6109b9565b005b3480156102ff57600080fd5b50610308610cc1565b6040516102589190613605565b34801561032157600080fd5b5061024e61033036600461366a565b600360209081526000928352604080842090915290825290205481565b34801561035957600080fd5b50610362610ddd565b604051610258919061369d565b34801561037b57600080fd5b5061028161038a366004613508565b610e3f565b34801561039b57600080fd5b506102f16103aa3660046136e9565b610e4f565b3480156103bb57600080fd5b506103cf6103ca3660046137b4565b6113f4565b6040519015158152602001610258565b3480156103eb57600080fd5b5061024e600c5481565b34801561040157600080fd5b5061024e6104103660046134ed565b61158c565b34801561042157600080fd5b506102f16115da565b34801561043657600080fd5b5061046b6104453660046136e9565b6006602090815260009283526040808420909152908252902054600160a060020a031681565b604051600160a060020a039091168152602001610258565b34801561048f57600080fd5b5061046b61049e366004613508565b6115ee565b3480156104af57600080fd5b5061024e6104be3660046134ed565b611618565b3480156104cf57600080fd5b5061046b6104de3660046134ed565b600760205260009081526040902054600160a060020a031681565b34801561050557600080fd5b506103626119c1565b34801561051a57600080fd5b50600054600160a060020a031661046b565b34801561053857600080fd5b5061046b610547366004613508565b611a21565b6102f161055a36600461359f565b611a31565b34801561056b57600080fd5b5061024e61057a3660046134ed565b611eb9565b34801561058b57600080fd5b5061024e61059a36600461366a565b600460209081526000928352604080842090915290825290205481565b3480156105c357600080fd5b5061024e6105d23660046134ed565b611f58565b3480156105e357600080fd5b5061024e6105f23660046134ed565b612007565b34801561060357600080fd5b506102f161061236600461366a565b612089565b34801561062357600080fd5b5061024e600b5481565b34801561063957600080fd5b506102f161064836600461381c565b6120bf565b34801561065957600080fd5b5061046b6106683660046136e9565b6005602090815260009283526040808420909152908252902054600160a060020a031681565b34801561069a57600080fd5b50610308612300565b3480156106af57600080fd5b506102f16106be3660046134ed565b612413565b3480156106cf57600080fd5b506102f16106de36600461359f565b6124bd565b3480156106ef57600080fd5b5061024e6106fe3660046136e9565b6129e7565b34801561070f57600080fd5b5061072361071e3660046134ed565b612a25565b6040516102589190613879565b34801561073c57600080fd5b5061075061074b3660046134ed565b612be6565b60408051928352602083019190915201610258565b34801561077157600080fd5b50600a5461046b90600160a060020a031681565b34801561079157600080fd5b506102f16107a036600461381c565b612d03565b6001546000908190156108295760005b60015481101561082757600160a060020a038416600090815260036020526040812060018054919291849081106107ee576107ee61388c565b6000918252602080832090910154600160a060020a0316835282019290925260400190205461081d90836138be565b91506001016107b5565b505b92915050565b6008818154811061083f57600080fd5b60009182526020909120600490910201805460018201546002830154600384018054600160a060020a0390941695509193909290919061087e906138d1565b80601f01602080910402602001604051908101604052809291908181526020018280546108aa906138d1565b80156108f75780601f106108cc576101008083540402835291602001916108f7565b820191906000526020600020905b8154815290600101906020018083116108da57829003601f168201915b5050505050905084565b6000670de0b6b3a764000061091584612a25565b60400151610923908461390e565b61092d9190613925565b9392505050565b600080805b600c54811015610827576000818152600660209081526040808320600160a060020a0380891685529252909120541680156109b057600160a060020a0380821660009081526004602090815260408083209389168352929052908120546109a090836129e7565b90506109ac81856138be565b9350505b50600101610939565b600081116109c657600080fd5b6000610a2f6002805480602002602001604051908101604052809291908181526020018280548015610a2157602002820191906000526020600020905b8154600160a060020a03168152600190910190602001808311610a03575b503394935050612f30915050565b60408051338152602081018390529192507ffd17bd4279d0fe7ef2675b6b6e8966ee4b2dbdc635a963c22487d11f2252fd26910160405180910390a16000811215610a7957600080fd5b600160a060020a0383166000908152600460209081526040808320338085529083529281902054815193845291830182905290917f39c49093e2def1aebe4cebf2fbebfd37c089d9231d17ecd15319230e499d7358910160405180910390a160008111610ae557600080fd5b83600160a060020a0381166323b872dd3330610b018587610901565b610b0b90896138be565b6040518463ffffffff1660e060020a028152600401610b2c9392919061394a565b6020604051808303816000875af1158015610b4b573d6000803e3d6000fd5b505050506040513d601f19601f82011682018060405250810190610b6f919061396e565b50600160a060020a038516600090815260046020908152604080832033845290915281208054869290610ba3908490613990565b90915550610bb2905033610934565b600003610c675760028054610bc990600190613990565b81548110610bd957610bd961388c565b60009182526020909120015460028054600160a060020a039092169185908110610c0557610c0561388c565b9060005260206000200160006101000a815481600160a060020a030219169083600160a060020a031602179055506002805480610c4457610c446139a3565b60008281526020902081016000199081018054600160a060020a03191690550190555b7ff17f5805b2095d17ffe834aff3fc2eeff114bfbc250e98f248783f8d34d40042338484610c958987610901565b610c9f90896138be565b6002604051610cb2959493929190613a06565b60405180910390a15050505050565b60606008805480602002602001604051908101604052809291908181526020016000905b82821015610dd457600084815260209081902060408051608081018252600486029092018054600160a060020a03168352600181015493830193909352600283015490820152600382018054919291606084019190610d43906138d1565b80601f0160208091040260200160405190810160405280929190818152602001828054610d6f906138d1565b8015610dbc5780601f10610d9157610100808354040283529160200191610dbc565b820191906000526020600020905b815481529060010190602001808311610d9f57829003601f168201915b50505050508152505081526020019060010190610ce5565b50505050905090565b60606001805480602002602001604051908101604052809291908181526020018280548015610e3557602002820191906000526020600020905b8154600160a060020a03168152600190910190602001808311610e17575b5050505050905090565b6009818154811061083f57600080fd5b610f6d816009805480602002602001604051908101604052809291908181526020016000905b82821015610f6457600084815260209081902060408051608081018252600486029092018054600160a060020a03168352600181015493830193909352600283015490820152600382018054919291606084019190610ed3906138d1565b80601f0160208091040260200160405190810160405280929190818152602001828054610eff906138d1565b8015610f4c5780601f10610f2157610100808354040283529160200191610f4c565b820191906000526020600020905b815481529060010190602001808311610f2f57829003601f168201915b50505050508152505081526020019060010190610e75565b50505050612f89565b610f7657600080fd5b60008211610f8357600080fd5b6000610f8e33611618565b90506000610f9c84846129e7565b60408051338152602081018390529081018490529091507f9855d8af0b8c5c7af990f62dff1fc3aeaded940bb30b8de4b0015eab8bcc7dde9060600160405180910390a181811115610fed57600080fd5b60405160e060020a6370a0823102815230600482015283907f1533b7359743566892d312c1ebe1047dfae70511d2db64634f80e3e8e2147354903390600160a060020a038416906370a0823190602401602060405180830381865afa15801561105a573d6000803e3d6000fd5b505050506040513d601f19601f8201168201806040525081019061107e9190613a45565b60408051600160a060020a0390931683526020830191909152810187905260600160405180910390a160405160e060020a6370a082310281523060048201528590600160a060020a038316906370a0823190602401602060405180830381865afa1580156110f0573d6000803e3d6000fd5b505050506040513d601f19601f820116820180604052508101906111149190613a45565b1015611181576040517f08c379a000000000000000000000000000000000000000000000000000000000815260206004820152601260248201527f496e73756666696369656e7420546f6b656e000000000000000000000000000060448201526064015b60405180910390fd5b6040517fa9059cbb00000000000000000000000000000000000000000000000000000000815233600482015260248101869052600160a060020a0382169063a9059cbb906044016020604051808303816000875af11580156111e7573d6000803e3d6000fd5b505050506040513d601f19601f8201168201806040525081019061120b919061396e565b50600080611276600280548060200260200160405190810160405280929190818152602001828054801561126857602002820191906000526020600020905b8154600160a060020a0316815260019091019060200180831161124a575b503394935050612ff2915050565b9150915081156112c6576112c18688836040518060400160405280600981526020017f626f72726f776572730000000000000000000000000000000000000000000000815250613062565b611383565b60028054600181019091557f405787fa12a823e0f2b7631cc41b3ba8828b3321ca811111fa75cd3aa3bb5ace018054600160a060020a03191633908117909155600160a060020a0387166000908152600460209081526040808320938352929052908120889055600c805488926006929091908261134383613a5e565b9091555081526020808201929092526040908101600090812033825290925290208054600160a060020a031916600160a060020a03929092169190911790555b600160a060020a0386166000908152600460209081526040808320338085529252918290205491517f699548a5535b752f15032eb2be1672b2e5e62ddc5d461d4edb5a9321d7cbd252926113e3929188918a918891889160029190613a77565b60405180910390a150505050505050565b60008215611580576040517f746f6b656e734c656e74000000000000000000000000000000000000000000006020820152602a01604051602081830303815290604052805190602001208260405160200161144f9190613ac7565b60405160208183030381529060405280519060200120036114c05760005b600b548110156114ba576000818152600560209081526040808320600160a060020a03808b168552925290912054811690861681036114b157600192505050611584565b5060010161146d565b50611580565b6040517f746f6b656e73426f72726f7765640000000000000000000000000000000000006020820152602e0160405160208183030381529060405280519060200120826040516020016115139190613ac7565b60405160208183030381529060405280519060200120036115805760005b600c5481101561157e576000818152600660209081526040808320600160a060020a03808b1685529252909120548116908616810361157557600192505050611584565b50600101611531565b505b5060005b949350505050565b60008061159883610934565b9050600081156115b2576115ab84611f58565b90506115be565b6115bb84611eb9565b90505b818110156115d0575060009392505050565b6115848282613990565b6115e26133ab565b6115ec600061341f565b565b600281815481106115fe57600080fd5b600091825260209091200154600160a060020a0316905081565b60008080805b6001548110156117fc5760006001828154811061163d5761163d61388c565b600091825260209091200154600160a060020a039081169150861681036117f35760005b6008548110156117f1576000600882815481106116805761168061388c565b90600052602060002090600402016040518060800160405290816000820160009054906101000a9004600160a060020a0316600160a060020a0316600160a060020a0316815260200160018201548152602001600282015481526020016003820180546116ec906138d1565b80601f0160208091040260200160405190810160405280929190818152602001828054611718906138d1565b80156117655780601f1061173a57610100808354040283529160200191611765565b820191906000526020600020905b81548152906001019060200180831161174857829003601f168201915b5050509190925250508151600160a060020a039081166000908152600360209081526040808320938e168352929052908120548351939450929091506117ac9083906129e7565b90506000670de0b6b3a76400008460200151836117c9919061390e565b6117d39190613925565b90506117df818a6138be565b98505060019093019250611661915050565b505b5060010161161e565b5060005b6002548110156119b65760006002828154811061181f5761181f61388c565b600091825260209091200154600160a060020a039081169150861681036119ad5760005b6009548110156119ab576000600982815481106118625761186261388c565b90600052602060002090600402016040518060800160405290816000820160009054906101000a9004600160a060020a0316600160a060020a0316600160a060020a0316815260200160018201548152602001600282015481526020016003820180546118ce906138d1565b80601f01602080910402602001604051908101604052809291908181526020018280546118fa906138d1565b80156119475780601f1061191c57610100808354040283529160200191611947565b820191906000526020600020905b81548152906001019060200180831161192a57829003601f168201915b5050509190925250508151600160a060020a039081166000908152600460209081526040808320938e1683529290529081205483519394509290915061198e9083906129e7565b905061199a81886138be565b965050600190920191506118439050565b505b50600101611800565b506115848183613990565b60606002805480602002602001604051908101604052809291908181526020018280548015610e3557602002820191906000526020600020908154600160a060020a03168152600190910190602001808311610e17575050505050905090565b600181815481106115fe57600080fd5b611b46826008805480602002602001604051908101604052809291908181526020016000905b82821015610f6457600084815260209081902060408051608081018252600486029092018054600160a060020a03168352600181015493830193909352600283015490820152600382018054919291606084019190611ab5906138d1565b80601f0160208091040260200160405190810160405280929190818152602001828054611ae1906138d1565b8015611b2e5780601f10611b0357610100808354040283529160200191611b2e565b820191906000526020600020905b815481529060010190602001808311611b1157829003601f168201915b50505050508152505081526020019060010190611a57565b611b4f57600080fd5b60008111611b5c57600080fd5b60405160e060020a6370a0823102815233600482015282908290600160a060020a038316906370a0823190602401602060405180830381865afa158015611ba7573d6000803e3d6000fd5b505050506040513d601f19601f82011682018060405250810190611bcb9190613a45565b1015611bd657600080fd5b6040517f23b872dd000000000000000000000000000000000000000000000000000000008152600160a060020a038216906323b872dd90611c1f9033903090879060040161394a565b6020604051808303816000875af1158015611c3e573d6000803e3d6000fd5b505050506040513d601f19601f82011682018060405250810190611c62919061396e565b50600080611ccb600180548060200260200160405190810160405280929190818152602001828054801561126857602002820191906000526020600020908154600160a060020a0316815260019091019060200180831161124a57503394935050612ff2915050565b915091508115611d1b57611d168585836040518060400160405280600781526020017f6c656e6465727300000000000000000000000000000000000000000000000000815250613062565b611dd7565b600180548082019091557fb10e2d527612073b26eecdfd717e6a320cf44b4afac2b0732d9fcbe2b7fa0cf6018054600160a060020a03191633908117909155600160a060020a0386166000908152600360209081526040808320938352929052908120859055600b8054879260059290919082611d9783613a5e565b9091555081526020808201929092526040908101600090812033825290925290208054600160a060020a031916600160a060020a03929092169190911790555b600a54600160a060020a031663a9059cbb33611df387896129e7565b60405160e060020a63ffffffff8516028152600160a060020a03909216600483015260248201526044016020604051808303816000875af1158015611e3c573d6000803e3d6000fd5b505050506040513d601f19601f82011682018060405250810190611e60919061396e565b50600160a060020a0385166000908152600360209081526040808320338085529252918290205491517fbb33ffe04605a99e7885b3013bcc050161d1906b3611f09fed70a0c61e1f03de92610cb2929160019190613ae3565b600080805b600b54811015610827576000818152600560209081526040808320600160a060020a0380891685529252909120541615611f50576000818152600560209081526040808320600160a060020a038881168086528285528386205490911680865260038552838620918652908452918420549252909190611f3f9083906129e7565b9050611f4b81856138be565b935050505b600101611ebe565b600080805b600b54811015610827576000818152600560209081526040808320600160a060020a038089168552925290912054168015611ffe57600160a060020a038082166000908152600360209081526040808320938916835292905290812054611fc490836129e7565b9050670de0b6b3a7640000611fd883612a25565b60200151611fe6908361390e565b611ff09190613925565b611ffa90856138be565b9350505b50600101611f5d565b6002546000908190156108295760005b60025481101561082757600160a060020a038416600090815260046020526040812060028054919291849081106120505761205061388c565b6000918252602080832090910154600160a060020a0316835282019290925260400190205461207f90836138be565b9150600101612017565b6120916133ab565b600160a060020a0391821660009081526007602052604090208054600160a060020a03191691909216179055565b6120c76133ab565b6000604051806080016040528085600160a060020a03168152602001848152602001838152602001868152509050612213816008805480602002602001604051908101604052809291908181526020016000905b8282101561220a57600084815260209081902060408051608081018252600486029092018054600160a060020a03168352600181015493830193909352600283015490820152600382018054919291606084019190612179906138d1565b80601f01602080910402602001604051908101604052809291908181526020018280546121a5906138d1565b80156121f25780601f106121c7576101008083540402835291602001916121f2565b820191906000526020600020905b8154815290600101906020018083116121d557829003601f168201915b5050505050815250508152602001906001019061211b565b5050505061346f565b6122f9576008805460018101825560009190915281517ff3f7a9fe364faab93b216da50a3214154f22a0a2b415b23a84c8169e8b636ee360049092029182018054600160a060020a031916600160a060020a0390921691909117815560208301517ff3f7a9fe364faab93b216da50a3214154f22a0a2b415b23a84c8169e8b636ee483015560408301517ff3f7a9fe364faab93b216da50a3214154f22a0a2b415b23a84c8169e8b636ee5830155606083015183927ff3f7a9fe364faab93b216da50a3214154f22a0a2b415b23a84c8169e8b636ee601906122f59082613b61565b5050505b5050505050565b60606009805480602002602001604051908101604052809291908181526020016000905b82821015610dd457600084815260209081902060408051608081018252600486029092018054600160a060020a03168352600181015493830193909352600283015490820152600382018054919291606084019190612382906138d1565b80601f01602080910402602001604051908101604052809291908181526020018280546123ae906138d1565b80156123fb5780601f106123d0576101008083540402835291602001916123fb565b820191906000526020600020905b8154815290600101906020018083116123de57829003601f168201915b50505050508152505081526020019060010190612324565b61241b6133ab565b600160a060020a0381166124b1576040517f08c379a000000000000000000000000000000000000000000000000000000000815260206004820152602660248201527f4f776e61626c653a206e6577206f776e657220697320746865207a65726f206160448201527f64647265737300000000000000000000000000000000000000000000000000006064820152608401611178565b6124ba8161341f565b50565b600081116124ca57600080fd5b60006125316001805480602002602001604051908101604052809291908181526020018280548015610a2157602002820191906000526020600020908154600160a060020a03168152600190910190602001808311610a0357503394935050612f30915050565b121561253c57600080fd5b81600061254983836129e7565b905060006125563361158c565b90506000612563866107a5565b9050600061257087612007565b905061257c8183613990565b86111561258857600080fd5b60408051338152602081018690529081018490527fa3f1253c66c67d41b745dd1caff0e52d3fb3aefdf8dd746b6af0c96d1f29e3bc9060600160405180910390a1828411156125d657600080fd5b60006125e287896129e7565b600a5460405160e060020a6370a08231028152336004820152919250600091600160a060020a03909116906370a0823190602401602060405180830381865afa158015612633573d6000803e3d6000fd5b505050506040513d601f19601f820116820180604052508101906126579190613a45565b90508082116126f657600a546040517f23b872dd000000000000000000000000000000000000000000000000000000008152600160a060020a03909116906323b872dd906126ad9033903090879060040161394a565b6020604051808303816000875af11580156126cc573d6000803e3d6000fd5b505050506040513d601f19601f820116820180604052508101906126f0919061396e565b50612788565b600a546040517f23b872dd000000000000000000000000000000000000000000000000000000008152600160a060020a03909116906323b872dd906127439033903090869060040161394a565b6020604051808303816000875af1158015612762573d6000803e3d6000fd5b505050506040513d601f19601f82011682018060405250810190612786919061396e565b505b6040517fa9059cbb00000000000000000000000000000000000000000000000000000000815233600482015260248101899052600160a060020a0388169063a9059cbb906044016020604051808303816000875af11580156127ee573d6000803e3d6000fd5b505050506040513d601f19601f82011682018060405250810190612812919061396e565b50600160a060020a0389166000908152600360209081526040808320338452909152812080548a9290612846908490613990565b909155507fb7ee00edafdb5db3a1b52a5789a6b562eb48268842d113dbfe860b6f86e5f59590503389888861287a84611eb9565b60408051600160a060020a0390961686526020860194909452928401919091526060830152608082015260a0810184905260c00160405180910390a160006128c133611eb9565b116129dc57600180546128d5908290613990565b815481106128e5576128e561388c565b9060005260206000200160009054906101000a9004600160a060020a0316600161296a6001805480602002602001604051908101604052809291908181526020018280548015610a2157602002820191906000526020600020908154600160a060020a03168152600190910190602001808311610a0357503394935050612f30915050565b8154811061297a5761297a61388c565b9060005260206000200160006101000a815481600160a060020a030219169083600160a060020a0316021790555060018054806129b9576129b96139a3565b60008281526020902081016000199081018054600160a060020a03191690550190555b505050505050505050565b60008060006129f584612be6565b90925090506000612a0782600a613d0d565b612a11848861390e565b612a1b9190613925565b9695505050505050565b612a5960405180608001604052806000600160a060020a031681526020016000815260200160008152602001606081525090565b612a8d60405180608001604052806000600160a060020a031681526020016000815260200160008152602001606081525090565b60005b6009548110156108275783600160a060020a031660098281548110612ab757612ab761388c565b6000918252602090912060049091020154600160a060020a031603612bde5760098181548110612ae957612ae961388c565b90600052602060002090600402016040518060800160405290816000820160009054906101000a9004600160a060020a0316600160a060020a0316600160a060020a031681526020016001820154815260200160028201548152602001600382018054612b55906138d1565b80601f0160208091040260200160405190810160405280929190818152602001828054612b81906138d1565b8015612bce5780601f10612ba357610100808354040283529160200191612bce565b820191906000526020600020905b815481529060010190602001808311612bb157829003601f168201915b5050505050815250509150610827565b600101612a90565b600160a060020a038082166000908152600760205260408082205481517ffeaf968c00000000000000000000000000000000000000000000000000000000815291519293849391169182918491839163feaf968c9160048082019260a0929091908290030181865afa158015612c60573d6000803e3d6000fd5b505050506040513d601f19601f82011682018060405250810190612c849190613d33565b505050915050600082600160a060020a031663313ce5676040518163ffffffff1660e060020a028152600401602060405180830381865afa158015612ccd573d6000803e3d6000fd5b505050506040513d601f19601f82011682018060405250810190612cf19190613d85565b919760ff909216965090945050505050565b612d0b6133ab565b6000604051806080016040528085600160a060020a03168152602001848152602001838152602001868152509050612e4e816009805480602002602001604051908101604052809291908181526020016000905b8282101561220a57600084815260209081902060408051608081018252600486029092018054600160a060020a03168352600181015493830193909352600283015490820152600382018054919291606084019190612dbd906138d1565b80601f0160208091040260200160405190810160405280929190818152602001828054612de9906138d1565b8015612e365780601f10612e0b57610100808354040283529160200191612e36565b820191906000526020600020905b815481529060010190602001808311612e1957829003601f168201915b50505050508152505081526020019060010190612d5f565b6122f9576009805460018101825560009190915281517f6e1540171b6c0c960b71a7020d9f60077f6af931a8bbf590da0223dacf75c7af60049092029182018054600160a060020a031916600160a060020a0390921691909117815560208301517f6e1540171b6c0c960b71a7020d9f60077f6af931a8bbf590da0223dacf75c7b083015560408301517f6e1540171b6c0c960b71a7020d9f60077f6af931a8bbf590da0223dacf75c7b1830155606083015183927f6e1540171b6c0c960b71a7020d9f60077f6af931a8bbf590da0223dacf75c7b201906122f59082613b61565b6000805b8251811015612f7e57828181518110612f4f57612f4f61388c565b6020026020010151600160a060020a031684600160a060020a031603612f76579050610829565b600101612f34565b506000199392505050565b805160009015612fe95760005b8251811015612fe75783600160a060020a0316838281518110612fbb57612fbb61388c565b602002602001015160000151600160a060020a031603612fdf576001915050610829565b600101612f96565b505b50600092915050565b6000806000835111156130525760005b83518110156130505783818151811061301d5761301d61388c565b6020026020010151600160a060020a031685600160a060020a0316036130485760019250905061305b565b600101613002565b505b50600090506000195b9250929050565b6040517f6c656e6465727300000000000000000000000000000000000000000000000000602082015260270160405160208183030381529060405280519060200120816040516020016130b59190613ac7565b6040516020818303038152906040528051906020012003613207576000600183815481106130e5576130e561388c565b9060005260206000200160009054906101000a9004600160a060020a031690506131488186600b546040518060400160405280600a81526020017f746f6b656e734c656e74000000000000000000000000000000000000000000008152506113f4565b1561318f57600160a060020a038086166000908152600360209081526040808320938516835292905290812080548692906131849084906138be565b909155506132019050565b600b80548691600591600091826131a583613a5e565b90915550815260208082019290925260409081016000908120600160a060020a038681168084529185528383208054600160a060020a031916968216969096179095559389168152600383528181209381529290915290208490555b506133a5565b6040517f626f72726f7765727300000000000000000000000000000000000000000000006020820152602901604051602081830303815290604052805190602001208160405160200161325a9190613ac7565b60405160208183030381529060405280519060200120036133a55760006002838154811061328a5761328a61388c565b9060005260206000200160009054906101000a9004600160a060020a031690506132ed8186600c546040518060400160405280600e81526020017f746f6b656e73426f72726f7765640000000000000000000000000000000000008152506113f4565b1561333457600160a060020a038086166000908152600460209081526040808320938516835292905290812080548692906133299084906138be565b909155506122f99050565b600c805486916006916000918261334a83613a5e565b90915550815260208082019290925260409081016000908120600160a060020a039586168083529084528282208054600160a060020a0319169587169590951790945593881684526004825280842092845291905290208390555b50505050565b600054600160a060020a031633146115ec576040517f08c379a000000000000000000000000000000000000000000000000000000000815260206004820181905260248201527f4f776e61626c653a2063616c6c6572206973206e6f7420746865206f776e65726044820152606401611178565b60008054600160a060020a03838116600160a060020a0319831681178455604051919092169283917f8be0079c531659141344cd1fd0a4f28419497f9722a3daafe3b4186f6b6457e09190a35050565b805160009015612fe95760005b8251811015612fe7578360000151600160a060020a03168382815181106134a5576134a561388c565b602002602001015160000151600160a060020a0316036134c9576001915050610829565b60010161347c565b8035600160a060020a03811681146134e857600080fd5b919050565b6000602082840312156134ff57600080fd5b61092d826134d1565b60006020828403121561351a57600080fd5b5035919050565b60005b8381101561353c578181015183820152602001613524565b50506000910152565b6000815180845261355d816020860160208601613521565b601f01601f19169290920160200192915050565b600160a060020a0385168152836020820152826040820152608060608201526000612a1b6080830184613545565b600080604083850312156135b257600080fd5b6135bb836134d1565b946020939093013593505050565b600160a060020a038151168252602081015160208301526040810151604083015260006060820151608060608501526115846080850182613545565b6000602082016020835280845180835260408501915060406020820286010192506020860160005b8281101561365e57603f198786030184526136498583516135c9565b9450602093840193919091019060010161362d565b50929695505050505050565b6000806040838503121561367d57600080fd5b613686836134d1565b9150613694602084016134d1565b90509250929050565b602080825282518282018190526000918401906040840190835b818110156136de578351600160a060020a03168352602093840193909201916001016136b7565b509095945050505050565b600080604083850312156136fc57600080fd5b82359150613694602084016134d1565b60e060020a634e487b7102600052604160045260246000fd5b600082601f83011261373657600080fd5b813567ffffffffffffffff8111156137505761375061370c565b604051601f8201601f19908116603f0116810167ffffffffffffffff8111828210171561377f5761377f61370c565b60405281815283820160200185101561379757600080fd5b816020850160208301376000918101602001919091529392505050565b600080600080608085870312156137ca57600080fd5b6137d3856134d1565b93506137e1602086016134d1565b925060408501359150606085013567ffffffffffffffff81111561380457600080fd5b61381087828801613725565b91505092959194509250565b6000806000806080858703121561383257600080fd5b843567ffffffffffffffff81111561384957600080fd5b61385587828801613725565b945050613864602086016134d1565b93969395505050506040820135916060013590565b60208152600061092d60208301846135c9565b60e060020a634e487b7102600052603260045260246000fd5b60e060020a634e487b7102600052601160045260246000fd5b80820180821115610829576108296138a5565b6002810460018216806138e557607f821691505b6020821081036139085760e060020a634e487b7102600052602260045260246000fd5b50919050565b8082028115828204841417610829576108296138a5565b6000826139455760e060020a634e487b7102600052601260045260246000fd5b500490565b600160a060020a039384168152919092166020820152604081019190915260600190565b60006020828403121561398057600080fd5b8151801515811461092d57600080fd5b81810381811115610829576108296138a5565b60e060020a634e487b7102600052603160045260246000fd5b6000815480845260208401935082600052602060002060005b828110156139fc578154600160a060020a03168652602090950194600191820191016139d5565b5093949350505050565b600160a060020a038616815284602082015283604082015282606082015260a060808201526000613a3a60a08301846139bc565b979650505050505050565b600060208284031215613a5757600080fd5b5051919050565b600060018201613a7057613a706138a5565b5060010190565b600160a060020a0388168152866020820152856040820152841515606082015283608082015260e060a08201526000613ab360e08301856139bc565b90508260c083015298975050505050505050565b60008251613ad9818460208701613521565b9190910192915050565b600160a060020a0384168152606060208201526000613b0560608301856139bc565b9050826040830152949350505050565b601f821115613b5c578060005260206000206020601f85010481016020851015613b3c5750805b6020601f850104820191505b818110156122f95760008155600101613b48565b505050565b815167ffffffffffffffff811115613b7b57613b7b61370c565b613b8f81613b8984546138d1565b84613b15565b6020601f821160018114613bc75760008315613bab5750848201515b60088402600290810a60001904198216908502178555506122f9565b600084815260208120601f198516915b82811015613bf75787850151825560209485019460019092019101613bd7565b5084821015613c175783870151601f861660080260020a60001904191681555b50505050600202600101905550565b6001815b6001841115613c6057808504811115613c4557613c456138a5565b6001841615613c5357908102905b6002909304928002613c2a565b935093915050565b600082613c7757506001610829565b81613c8457506000610829565b8160018114613c9a5760028114613ca457613cc1565b6001915050610829565b60ff841115613cb557613cb56138a5565b8360020a915050610829565b5060208310610133831016604e8410600b8410161715613ce4575081810a610829565b613cf16000198484613c26565b8060001904821115613d0557613d056138a5565b029392505050565b600061092d8383613c68565b805169ffffffffffffffffffff811681146134e857600080fd5b600080600080600060a08688031215613d4b57600080fd5b613d5486613d19565b60208701516040880151606089015192975090955093509150613d7960808701613d19565b90509295509295909350565b600060208284031215613d9757600080fd5b815160ff8116811461092d57600080fdfea26469706673582212206dbbc1c32725bc1efcdda1cc0db18b2aadd1b585ed79c1f0404798a15cc113e664736f6c634300081c0033",
  "immutableReferences": {},
  "source": "// SPDX-License-Identifier: MIT\r\npragma solidity >=0.4.22 <0.9.0;\r\nimport \"./LendingHelper.sol\";\r\n\r\ncontract LendingAndBorrowing is Ownable {\r\n    using LendingHelper for address;\r\n\r\n    address[] public lenders;\r\n    address[] public borrowers;\r\n\r\n    // {tokenAddres: {userAddr : amount}}\r\n    mapping(address => mapping(address => uint256)) public tokensLentAmount;\r\n    mapping(address => mapping(address => uint256)) public tokensBorrowedAmount;\r\n\r\n    // {noOfTokensLent[1,2,3,4]: {userAddr: tokenAddres}}\r\n    mapping(uint256 => mapping(address => address)) public tokensLent;\r\n    mapping(uint256 => mapping(address => address)) public tokensBorrowed;\r\n\r\n    mapping(address => address) public tokenToPriceFeed;\r\n\r\n    event Withdraw(\r\n        address sender,\r\n        uint256 amount,\r\n        uint256 tokenToWithdrawInDollars,\r\n        uint256 availableToWithdraw,\r\n        uint256 totalAmountLentInDollars,\r\n        uint256 larTokenToRemove\r\n    );\r\n    event PayDebt(\r\n        address sender,\r\n        int256 index,\r\n        uint256 tokenAmountBorrowed,\r\n        uint256 totalTokenAmountToCollectFromUser,\r\n        address[] borrowers\r\n    );\r\n    event Borrow(\r\n        address sender,\r\n        uint256 amountInDollars,\r\n        uint256 totalAmountAvailableForBorrowInDollars,\r\n        bool userPresent,\r\n        int256 userIndex,\r\n        address[] borrowers,\r\n        uint256 currentUserTokenBorrowedAmount\r\n    );\r\n    event Supply(address sender,address[] lenders,uint256 currentUserTokenLentAmount);\r\n    event WithdrawTesting(address sender,uint256 tokentoWithdrawInDollars,uint256 availableToWithdraw);\r\n    event BorrowTesting1(address sender,uint256 amountInDollars,uint256 totalAmountAvailableForBorrowInDollars);\r\n    event BorrowTesting2(address sender, uint256 balance, uint256 amount);\r\n    event RepayTesting1(address sender, int256 index);\r\n    event RepayTesting2(address sender, uint256 tokenBorrowed);\r\n\r\n    struct Token {\r\n        address tokenAddress;\r\n        uint256 LTV;\r\n        uint256 stableRate;\r\n        string name;\r\n    }\r\n\r\n    //Array of Struct Token [Dai, Weth, Fau, Link]\r\n    Token[] public tokensForLending;\r\n    Token[] public tokensForBorrowing;\r\n\r\n    IERC20 public larToken;\r\n\r\n    uint256 public noOfTokensLent = 0;\r\n    uint256 public noOfTokensBorrowed = 0;\r\n\r\n    constructor(address _token) {\r\n        larToken = IERC20(_token);\r\n    }\r\n\r\n    function addTokensForLending(\r\n        string memory name,\r\n        address tokenAddress,\r\n        uint256 LTV,\r\n        uint256 borrowStableRate\r\n    ) external onlyOwner {\r\n        Token memory token = Token(tokenAddress, LTV, borrowStableRate, name);\r\n\r\n        if (!tokenIsAlreadyThere(token,tokensForLending)) {\r\n            tokensForLending.push(token);\r\n        }\r\n    }\r\n\r\n    function addTokensForBorrowing(\r\n        string memory name,\r\n        address tokenAddress,\r\n        uint256 LTV,\r\n        uint256 borrowStableRate\r\n    ) external onlyOwner {\r\n        Token memory token = Token(tokenAddress, LTV, borrowStableRate, name);\r\n\r\n        if (!tokenIsAlreadyThere(token,tokensForBorrowing)) {\r\n            tokensForBorrowing.push(token);\r\n        }\r\n    }\r\n\r\n    function addTokenToPriceFeedMapping(address tokenAddress, address tokenToUsdPriceFeed) external onlyOwner {\r\n        tokenToPriceFeed[tokenAddress] = tokenToUsdPriceFeed;\r\n    }\r\n\r\n    function getLendersArray() public view returns (address[] memory) {\r\n        return lenders;\r\n    }\r\n\r\n    function getBorrowersArray() public view returns (address[] memory) {\r\n        return borrowers;\r\n    }\r\n\r\n    function getTokensForLendingArray() public view returns (Token[] memory) {\r\n        return tokensForLending;\r\n    }\r\n\r\n    function getTokensForBorrowingArray() public view returns (Token[] memory) {\r\n        return tokensForBorrowing;\r\n    }\r\n\r\n    function lend(address tokenAddress, uint256 amount) external payable {\r\n        require(tokenIsAllowed(tokenAddress, tokensForLending));\r\n        require(amount > 0);\r\n\r\n        IERC20 token = IERC20(tokenAddress);\r\n\r\n        require(token.balanceOf(msg.sender) >= amount);\r\n\r\n        token.transferFrom(msg.sender, address(this), amount);\r\n\r\n        (bool userPresent, int256 userIndex) = msg.sender.isUserPresentIn(lenders);\r\n\r\n        if (userPresent) {\r\n            updateUserTokensBorrowedOrLent(tokenAddress,amount,userIndex,\"lenders\");\r\n        } else {\r\n            lenders.push(msg.sender);\r\n            tokensLentAmount[tokenAddress][msg.sender] = amount;\r\n            tokensLent[noOfTokensLent++][msg.sender] = tokenAddress;\r\n        }\r\n\r\n         // Send some tokens to the user equivalent to the token amount lent.\r\n        larToken.transfer(msg.sender, getAmountInDollars(amount, tokenAddress));\r\n\r\n        emit Supply(msg.sender,lenders,tokensLentAmount[tokenAddress][msg.sender]);\r\n    }\r\n\r\n    function borrow(uint256 amount, address tokenAddress) external {\r\n        require(tokenIsAllowed(tokenAddress, tokensForBorrowing));\r\n        require(amount > 0);\r\n\r\n        uint256 totalAmountAvailableForBorrowInDollars = getUserTotalAmountAvailableForBorrowInDollars(msg.sender);\r\n        uint256 amountInDollars = getAmountInDollars(amount, tokenAddress);\r\n\r\n        emit BorrowTesting1(msg.sender,amountInDollars,totalAmountAvailableForBorrowInDollars);\r\n\r\n        require(amountInDollars <= totalAmountAvailableForBorrowInDollars);\r\n\r\n        IERC20 token = IERC20(tokenAddress);\r\n\r\n        emit BorrowTesting2(msg.sender, token.balanceOf(address(this)), amount);\r\n\r\n        require(token.balanceOf(address(this)) >= amount,\"Insufficient Token\");\r\n\r\n        token.transfer(msg.sender, amount);\r\n\r\n        //Library function isUserPresentIn\r\n        (bool userPresent, int256 userIndex) = msg.sender.isUserPresentIn(borrowers);\r\n\r\n        if (userPresent) {\r\n          updateUserTokensBorrowedOrLent(tokenAddress,amount,userIndex,\"borrowers\");\r\n        } else {\r\n            borrowers.push(msg.sender);\r\n            tokensBorrowedAmount[tokenAddress][msg.sender] = amount;\r\n            tokensBorrowed[noOfTokensBorrowed++][msg.sender] = tokenAddress;\r\n        }\r\n\r\n        emit Borrow(\r\n            msg.sender,\r\n            amountInDollars,\r\n            totalAmountAvailableForBorrowInDollars,\r\n            userPresent,\r\n            userIndex,\r\n            borrowers,\r\n            tokensBorrowedAmount[tokenAddress][msg.sender]\r\n        );\r\n    }\r\n\r\n    function payDebt(address tokenAddress, uint256 amount) external {\r\n        require(amount > 0);\r\n\r\n        int256 index = msg.sender.indexOf(borrowers);\r\n\r\n        emit RepayTesting1(msg.sender, index);\r\n        require(index >= 0);\r\n\r\n        uint256 tokenBorrowed = tokensBorrowedAmount[tokenAddress][msg.sender];\r\n\r\n        emit RepayTesting2(msg.sender, tokenBorrowed);\r\n\r\n        require(tokenBorrowed > 0);\r\n        IERC20 token = IERC20(tokenAddress);\r\n\r\n        token.transferFrom(msg.sender,address(this),amount + interest(tokenAddress, tokenBorrowed));\r\n\r\n        tokensBorrowedAmount[tokenAddress][msg.sender] -= amount;\r\n\r\n        // Checking if all total amount borrowed by a user = 0, then remove the user from borrowers list;\r\n        if (getTotalAmountBorrowedInDollars(msg.sender) == 0) {\r\n            borrowers[uint256(index)] = borrowers[borrowers.length - 1];\r\n            borrowers.pop();\r\n        }\r\n\r\n        emit PayDebt(\r\n            msg.sender,\r\n            index,\r\n            tokenBorrowed,\r\n            amount + interest(tokenAddress, tokenBorrowed),\r\n            borrowers\r\n        );\r\n    }\r\n\r\n    function withdraw(address tokenAddress, uint256 amount) external {\r\n        require(amount > 0);\r\n\r\n        require(msg.sender.indexOf(lenders) >= 0);\r\n\r\n        IERC20 token = IERC20(tokenAddress);\r\n\r\n        uint256 tokenToWithdrawInDollars = getAmountInDollars(amount,tokenAddress);\r\n        uint256 availableToWithdraw = getTokenAvailableToWithdraw(msg.sender);\r\n\r\n        uint totalTokenSuppliedInContract = getTotalTokenSupplied(tokenAddress);\r\n        uint totalTokenBorrowedInContract = getTotalTokenBorrowed(tokenAddress);\r\n\r\n        require(amount <= (totalTokenSuppliedInContract - totalTokenBorrowedInContract));\r\n\r\n        emit WithdrawTesting(msg.sender,tokenToWithdrawInDollars,availableToWithdraw);\r\n\r\n        require(tokenToWithdrawInDollars <= availableToWithdraw);\r\n\r\n        uint256 larTokenToRemove = getAmountInDollars(amount, tokenAddress);\r\n        uint256 larTokenBalance = larToken.balanceOf(msg.sender);\r\n\r\n        if (larTokenToRemove <= larTokenBalance) {\r\n            larToken.transferFrom(msg.sender, address(this), larTokenToRemove);\r\n        } else {\r\n            larToken.transferFrom(msg.sender, address(this), larTokenBalance);\r\n        }\r\n\r\n        token.transfer(msg.sender, amount);\r\n\r\n        tokensLentAmount[tokenAddress][msg.sender] -= amount;\r\n\r\n        emit Withdraw(\r\n            msg.sender,\r\n            amount,\r\n            tokenToWithdrawInDollars,\r\n            availableToWithdraw,\r\n            getTotalAmountLentInDollars(msg.sender),\r\n            larTokenToRemove\r\n        );\r\n\r\n        if (getTotalAmountLentInDollars(msg.sender) <= 0) {\r\n            lenders[uint256(msg.sender.indexOf(lenders))] = lenders[lenders.length - 1];\r\n            lenders.pop();\r\n        }\r\n    }\r\n\r\n    function getTokenAvailableToWithdraw(address user)public view returns (uint256){\r\n\r\n        uint256 totalAmountBorrowedInDollars = getTotalAmountBorrowedInDollars(user);\r\n\r\n        uint remainingCollateral = 0;\r\n\r\n        if (totalAmountBorrowedInDollars > 0 ){\r\n            remainingCollateral = getRemainingCollateral(user);\r\n        }else{\r\n            remainingCollateral = getTotalAmountLentInDollars(user);\r\n        }\r\n\r\n        if (remainingCollateral < totalAmountBorrowedInDollars){return 0;}\r\n\r\n        return remainingCollateral - totalAmountBorrowedInDollars;\r\n    }\r\n\r\n    function getRemainingCollateral(address user)public view returns (uint256){\r\n           uint256 remainingCollateral = 0;\r\n           for (uint256 i = 0; i < noOfTokensLent; i++)\r\n           {\r\n               address userLentTokenAddressFound = tokensLent[i][user];\r\n\r\n               if (userLentTokenAddressFound !=0x0000000000000000000000000000000000000000)\r\n               {\r\n                 uint256 tokenAmountLentInDollars = getAmountInDollars(\r\n                   tokensLentAmount[userLentTokenAddressFound][user],\r\n                   userLentTokenAddressFound);\r\n\r\n                 remainingCollateral += (tokenAmountLentInDollars * getTokenFrom(userLentTokenAddressFound).LTV) / 10 ** 18;\r\n               }\r\n           }\r\n           return remainingCollateral;\r\n       }\r\n\r\n       function getTotalAmountBorrowedInDollars(address user) public view returns (uint256){\r\n           uint256 totalAmountBorrowed = 0;\r\n\r\n           for (uint256 i = 0; i < noOfTokensBorrowed; i++) {\r\n               address userBorrowedTokenAddressFound = tokensBorrowed[i][user];\r\n\r\n               if (userBorrowedTokenAddressFound != 0x0000000000000000000000000000000000000000)\r\n               {\r\n                  ///tokenAmountBorrowed is tokensBorrowedAmount[userBorrowedTokenAddressFound][user];\r\n\r\n                   uint256 tokenAmountBorrowedInDollars = getAmountInDollars(\r\n                       tokensBorrowedAmount[userBorrowedTokenAddressFound][user],\r\n                       userBorrowedTokenAddressFound\r\n                   );\r\n\r\n                   totalAmountBorrowed += tokenAmountBorrowedInDollars;\r\n               }\r\n           }\r\n           return totalAmountBorrowed;\r\n       }\r\n\r\n       function getTotalAmountLentInDollars(address user) public view returns (uint256){\r\n           uint256 totalAmountLent = 0;\r\n           for (uint256 i = 0; i < noOfTokensLent; i++) {\r\n               if (tokensLent[i][user] !=0x0000000000000000000000000000000000000000)\r\n               {\r\n                   uint256 tokenAmountLent = tokensLentAmount[tokensLent[i][user]][user];\r\n\r\n                   uint256 tokenAmountLentInDollars = getAmountInDollars(tokenAmountLent,tokensLent[i][user]);\r\n\r\n                   totalAmountLent += tokenAmountLentInDollars;\r\n               }\r\n           }\r\n           return totalAmountLent;\r\n       }\r\n\r\n       function interest(address tokenAddress, uint256 tokenBorrowed) public view returns (uint256){\r\n           return (tokenBorrowed * getTokenFrom(tokenAddress).stableRate) / 10**18;\r\n       }\r\n\r\n       function getTokenFrom(address tokenAddress) public view returns (Token memory){\r\n           Token memory token;\r\n           for (uint256 i = 0; i < tokensForBorrowing.length; i++) {\r\n               if (tokensForBorrowing[i].tokenAddress == tokenAddress) {\r\n                   token = tokensForBorrowing[i];\r\n                   break;\r\n               }\r\n           }\r\n           return token;\r\n       }\r\n\r\n       function getUserTotalAmountAvailableForBorrowInDollars(address user) public view returns (uint256){\r\n          // uint256 totalAvailableToBorrow = 0;\r\n\r\n          uint256 userTotalCollateralToBorrow = 0;\r\n          uint256 userTotalCollateralAlreadyBorrowed = 0;\r\n\r\n          for (uint256 i = 0; i < lenders.length; i++) {\r\n              address currentLender = lenders[i];\r\n              if (currentLender == user) {\r\n                  for (uint256 j = 0; j < tokensForLending.length; j++) {\r\n                      Token memory currentTokenForLending = tokensForLending[j];\r\n                      uint256 currentTokenLentAmount = tokensLentAmount[currentTokenForLending.tokenAddress][user];\r\n                      uint256 currentTokenLentAmountInDollar = getAmountInDollars(\r\n                          currentTokenLentAmount,\r\n                          currentTokenForLending.tokenAddress\r\n                      );\r\n                      uint256 availableInDollar = (currentTokenLentAmountInDollar * currentTokenForLending.LTV) / 10**18;\r\n                      userTotalCollateralToBorrow += availableInDollar;\r\n                  }\r\n              }\r\n          }\r\n\r\n          for (uint256 i = 0; i < borrowers.length; i++) {\r\n              address currentBorrower = borrowers[i];\r\n              if (currentBorrower == user) {\r\n                  for (uint256 j = 0; j < tokensForBorrowing.length; j++) {\r\n                      Token memory currentTokenForBorrowing = tokensForBorrowing[j];\r\n                      uint256 currentTokenBorrowedAmount = tokensBorrowedAmount[currentTokenForBorrowing.tokenAddress][user];\r\n                      uint256 currentTokenBorrowedAmountInDollar = getAmountInDollars(\r\n                              (currentTokenBorrowedAmount),\r\n                              currentTokenForBorrowing.tokenAddress\r\n                          );\r\n\r\n                      userTotalCollateralAlreadyBorrowed += currentTokenBorrowedAmountInDollar;\r\n                  }\r\n              }\r\n          }\r\n\r\n          return userTotalCollateralToBorrow - userTotalCollateralAlreadyBorrowed;\r\n      }\r\n\r\n\r\n       function tokenIsAllowed(address tokenAddress, Token[] memory tokenArray) private pure returns (bool){\r\n           if (tokenArray.length > 0) {\r\n               for (uint256 i = 0; i < tokenArray.length; i++) {\r\n                   if (tokenArray[i].tokenAddress == tokenAddress) {\r\n                       return true;\r\n                   }\r\n               }\r\n           }\r\n           return false;\r\n       }\r\n\r\n       function tokenIsAlreadyThere(Token memory token, Token[] memory tokenArray) private pure returns (bool){\r\n           if (tokenArray.length > 0) {\r\n               for (uint256 i = 0; i < tokenArray.length; i++) {\r\n                   if (tokenArray[i].tokenAddress == token.tokenAddress) {\r\n                       return true;\r\n                   }\r\n               }\r\n           }\r\n           return false;\r\n       }\r\n\r\n       function getAmountInDollars(uint256 amount, address tokenAddress) public view returns (uint256){\r\n          (uint256 dollarPerToken,uint256 decimals) = oneTokenEqualsHowManyDollars(tokenAddress);\r\n          uint256 totalAmountInDollars = (amount * dollarPerToken) / (10**decimals);\r\n          return totalAmountInDollars;\r\n        }\r\n\r\n      function oneTokenEqualsHowManyDollars(address tokenAddress) public view returns (uint256, uint256){\r\n            address tokenToUsd = tokenToPriceFeed[tokenAddress];\r\n            AggregatorV3Interface priceFeed = AggregatorV3Interface(tokenToUsd);\r\n\r\n            (, int256 price, , , ) = priceFeed.latestRoundData();\r\n\r\n            uint256 decimals = priceFeed.decimals();\r\n\r\n            return (uint256(price), decimals);\r\n        }\r\n\r\n       function updateUserTokensBorrowedOrLent(\r\n         address tokenAddress,\r\n         uint256 amount,\r\n         int256 userIndex,\r\n         string memory lendersOrBorrowers)\r\n         private {\r\n           if ( keccak256(abi.encodePacked(lendersOrBorrowers)) == keccak256(abi.encodePacked(\"lenders\"))) {\r\n               address currentUser = lenders[uint256(userIndex)];\r\n\r\n               if (hasLentOrBorrowedToken(currentUser, tokenAddress, noOfTokensLent,\"tokensLent\")) {\r\n                   tokensLentAmount[tokenAddress][currentUser] += amount;\r\n               } else {\r\n                   tokensLent[noOfTokensLent++][currentUser] = tokenAddress;\r\n                   tokensLentAmount[tokenAddress][currentUser] = amount;\r\n               }\r\n           } else if (keccak256(abi.encodePacked(lendersOrBorrowers)) == keccak256(abi.encodePacked(\"borrowers\"))) {\r\n               address currentUser = borrowers[uint256(userIndex)];\r\n\r\n               if (hasLentOrBorrowedToken(currentUser,tokenAddress,noOfTokensBorrowed,\"tokensBorrowed\")) {\r\n                   tokensBorrowedAmount[tokenAddress][currentUser] += amount;\r\n               } else {\r\n                   tokensBorrowed[noOfTokensBorrowed++][currentUser] = tokenAddress;\r\n                   tokensBorrowedAmount[tokenAddress][currentUser] = amount;\r\n               }\r\n           }\r\n       }\r\n\r\n       function hasLentOrBorrowedToken(\r\n           address currentUser,\r\n           address tokenAddress,\r\n           uint256 noOfTokenslentOrBorrowed,\r\n           string memory _tokensLentOrBorrowed\r\n       ) public view returns (bool) {\r\n           if (noOfTokenslentOrBorrowed > 0) {\r\n               if (keccak256(abi.encodePacked(_tokensLentOrBorrowed)) == keccak256(abi.encodePacked(\"tokensLent\"))) {\r\n                   for (uint256 i = 0; i < noOfTokensLent; i++) {\r\n                       address tokenAddressFound = tokensLent[i][currentUser];\r\n                       if (tokenAddressFound == tokenAddress) {\r\n                           return true;\r\n                       }\r\n                   }\r\n               } else if (keccak256(abi.encodePacked(_tokensLentOrBorrowed)) == keccak256(abi.encodePacked(\"tokensBorrowed\"))) {\r\n                   for (uint256 i = 0; i < noOfTokensBorrowed; i++) {\r\n                       address tokenAddressFound = tokensBorrowed[i][currentUser];\r\n                       if (tokenAddressFound == tokenAddress) {\r\n                           return true;\r\n                       }\r\n                   }\r\n               }\r\n           }\r\n           return false;\r\n       }\r\n\r\n\r\n\r\n       function getTotalTokenSupplied(address tokenAddres) public view returns (uint256){\r\n           uint256 totalTokenSupplied = 0;\r\n           if (lenders.length > 0) {\r\n               for (uint256 i = 0; i < lenders.length; i++) {\r\n                   totalTokenSupplied += tokensLentAmount[tokenAddres][lenders[i]];\r\n               }\r\n           }\r\n\r\n           return totalTokenSupplied;\r\n       }\r\n\r\n       function getTotalTokenBorrowed(address tokenAddress) public view returns (uint256){\r\n           uint256 totalTokenBorrowed = 0;\r\n           if (borrowers.length > 0) {\r\n               for (uint256 i = 0; i < borrowers.length; i++) {\r\n                   totalTokenBorrowed += tokensBorrowedAmount[tokenAddress][borrowers[i]];\r\n               }\r\n           }\r\n           return totalTokenBorrowed;\r\n       }\r\n\r\n}\r\n",
  "sourcePath": "c:\\Users\\tgood\\Documents\\GitHub\\Defi-Lending-Borrowing\\contracts\\LendingAndBorrowing.sol",
  "compiler": {
    "name": "solc",
    "version": "0.8.28+commit.7893614a.Emscripten.clang"
  },
  "schemaVersion": "3.4.16",
  "updatedAt": "2024-11-19T03:57:10.620Z",
  "networkType": "ethereum",
  "devdoc": {
    "kind": "dev",
    "methods": {
      "owner()": {
        "details": "Returns the address of the current owner."
      },
      "renounceOwnership()": {
        "details": "Leaves the contract without owner. It will not be possible to call `onlyOwner` functions. Can only be called by the current owner. NOTE: Renouncing ownership will leave the contract without an owner, thereby disabling any functionality that is only available to the owner."
      },
      "transferOwnership(address)": {
        "details": "Transfers ownership of the contract to a new account (`newOwner`). Can only be called by the current owner."
      }
    },
    "version": 1
  },
  "userdoc": {
    "kind": "user",
    "methods": {},
    "version": 1
  }
}