{
  "contractName": "MockV3Aggregator",
  "abi": [
    {
      "inputs": [
        {
          "internalType": "uint8",
          "name": "_decimals",
          "type": "uint8"
        },
        {
          "internalType": "int256",
          "name": "_initialAnswer",
          "type": "int256"
        }
      ],
      "stateMutability": "nonpayable",
      "type": "constructor"
    },
    {
      "anonymous": false,
      "inputs": [
        {
          "indexed": true,
          "internalType": "int256",
          "name": "current",
          "type": "int256"
        },
        {
          "indexed": true,
          "internalType": "uint256",
          "name": "roundId",
          "type": "uint256"
        },
        {
          "indexed": false,
          "internalType": "uint256",
          "name": "updatedAt",
          "type": "uint256"
        }
      ],
      "name": "AnswerUpdated",
      "type": "event"
    },
    {
      "anonymous": false,
      "inputs": [
        {
          "indexed": true,
          "internalType": "uint256",
          "name": "roundId",
          "type": "uint256"
        },
        {
          "indexed": true,
          "internalType": "address",
          "name": "startedBy",
          "type": "address"
        },
        {
          "indexed": false,
          "internalType": "uint256",
          "name": "startedAt",
          "type": "uint256"
        }
      ],
      "name": "NewRound",
      "type": "event"
    },
    {
      "inputs": [],
      "name": "decimals",
      "outputs": [
        {
          "internalType": "uint8",
          "name": "",
          "type": "uint8"
        }
      ],
      "stateMutability": "view",
      "type": "function"
    },
    {
      "inputs": [
        {
          "internalType": "uint256",
          "name": "",
          "type": "uint256"
        }
      ],
      "name": "getAnswer",
      "outputs": [
        {
          "internalType": "int256",
          "name": "",
          "type": "int256"
        }
      ],
      "stateMutability": "view",
      "type": "function"
    },
    {
      "inputs": [
        {
          "internalType": "uint256",
          "name": "",
          "type": "uint256"
        }
      ],
      "name": "getTimestamp",
      "outputs": [
        {
          "internalType": "uint256",
          "name": "",
          "type": "uint256"
        }
      ],
      "stateMutability": "view",
      "type": "function"
    },
    {
      "inputs": [],
      "name": "latestAnswer",
      "outputs": [
        {
          "internalType": "int256",
          "name": "",
          "type": "int256"
        }
      ],
      "stateMutability": "view",
      "type": "function"
    },
    {
      "inputs": [],
      "name": "latestRound",
      "outputs": [
        {
          "internalType": "uint256",
          "name": "",
          "type": "uint256"
        }
      ],
      "stateMutability": "view",
      "type": "function"
    },
    {
      "inputs": [],
      "name": "latestTimestamp",
      "outputs": [
        {
          "internalType": "uint256",
          "name": "",
          "type": "uint256"
        }
      ],
      "stateMutability": "view",
      "type": "function"
    },
    {
      "inputs": [],
      "name": "version",
      "outputs": [
        {
          "internalType": "uint256",
          "name": "",
          "type": "uint256"
        }
      ],
      "stateMutability": "view",
      "type": "function"
    },
    {
      "inputs": [
        {
          "internalType": "int256",
          "name": "_answer",
          "type": "int256"
        }
      ],
      "name": "updateAnswer",
      "outputs": [],
      "stateMutability": "nonpayable",
      "type": "function"
    },
    {
      "inputs": [
        {
          "internalType": "uint80",
          "name": "_roundId",
          "type": "uint80"
        },
        {
          "internalType": "int256",
          "name": "_answer",
          "type": "int256"
        },
        {
          "internalType": "uint256",
          "name": "_timestamp",
          "type": "uint256"
        },
        {
          "internalType": "uint256",
          "name": "_startedAt",
          "type": "uint256"
        }
      ],
      "name": "updateRoundData",
      "outputs": [],
      "stateMutability": "nonpayable",
      "type": "function"
    },
    {
      "inputs": [
        {
          "internalType": "uint80",
          "name": "_roundId",
          "type": "uint80"
        }
      ],
      "name": "getRoundData",
      "outputs": [
        {
          "internalType": "uint80",
          "name": "roundId",
          "type": "uint80"
        },
        {
          "internalType": "int256",
          "name": "answer",
          "type": "int256"
        },
        {
          "internalType": "uint256",
          "name": "startedAt",
          "type": "uint256"
        },
        {
          "internalType": "uint256",
          "name": "updatedAt",
          "type": "uint256"
        },
        {
          "internalType": "uint80",
          "name": "answeredInRound",
          "type": "uint80"
        }
      ],
      "stateMutability": "view",
      "type": "function"
    },
    {
      "inputs": [],
      "name": "latestRoundData",
      "outputs": [
        {
          "internalType": "uint80",
          "name": "roundId",
          "type": "uint80"
        },
        {
          "internalType": "int256",
          "name": "answer",
          "type": "int256"
        },
        {
          "internalType": "uint256",
          "name": "startedAt",
          "type": "uint256"
        },
        {
          "internalType": "uint256",
          "name": "updatedAt",
          "type": "uint256"
        },
        {
          "internalType": "uint80",
          "name": "answeredInRound",
          "type": "uint80"
        }
      ],
      "stateMutability": "view",
      "type": "function"
    },
    {
      "inputs": [],
      "name": "description",
      "outputs": [
        {
          "internalType": "string",
          "name": "",
          "type": "string"
        }
      ],
      "stateMutability": "view",
      "type": "function"
    }
  ],
  "bytecode": "0x608060405234801561001057600080fd5b506040516105a03803806105a083398101604081905261002f916100ad565b6000805460ff191660ff841617905561005081640100000000610057810204565b5050610121565b60018190554260025560038054906000610070836100e1565b9091555050600380546000908152600460209081526040808320949094558254825260058152838220429081905592548252600690529190912055565b600080604083850312156100c057600080fd5b825160ff811681146100d157600080fd5b6020939093015192949293505050565b60006001820161011a577f4e487b7100000000000000000000000000000000000000000000000000000000600052601160045260246000fd5b5060010190565b610470806101306000396000f3fe608060405234801561001057600080fd5b50600436106100d1576000357c0100000000000000000000000000000000000000000000000000000000900480638205bf6a1161008e5780638205bf6a146101be5780639a6fc8f5146101c7578063a87a20ce14610245578063b5ab58dc14610258578063b633620c14610278578063feaf968c1461029857600080fd5b8063313ce567146100d65780634aa2011f146100fa57806350d25bcd1461015757806354fd4d501461016e578063668a0f02146101765780637284e4161461017f575b600080fd5b6000546100e39060ff1681565b60405160ff90911681526020015b60405180910390f35b610155610108366004610338565b69ffffffffffffffffffff90931660038181556001849055600283905560009182526004602090815260408084209590955581548352600581528483209390935554815260069091522055565b005b61016060015481565b6040519081526020016100f1565b610160600081565b61016060035481565b604080518082018252601f81527f76302e362f74657374732f4d6f636b563341676772656761746f722e736f6c00602082015290516100f19190610371565b61016060025481565b61020e6101d53660046103bf565b69ffffffffffffffffffff8116600090815260046020908152604080832054600683528184205460059093529220549293919290918490565b6040805169ffffffffffffffffffff968716815260208101959095528401929092526060830152909116608082015260a0016100f1565b6101556102533660046103e1565b6102c3565b6101606102663660046103e1565b60046020526000908152604090205481565b6101606102863660046103e1565b60056020526000908152604090205481565b600354600081815260046020908152604080832054600683528184205460059093529220548361020e565b600181905542600255600380549060006102dc836103fa565b9091555050600380546000908152600460209081526040808320949094558254825260058152838220429081905592548252600690529190912055565b803569ffffffffffffffffffff8116811461033357600080fd5b919050565b6000806000806080858703121561034e57600080fd5b61035785610319565b966020860135965060408601359560600135945092505050565b602081526000825180602084015260005b8181101561039f5760208186018101516040868401015201610382565b506000604082850101526040601f19601f83011684010191505092915050565b6000602082840312156103d157600080fd5b6103da82610319565b9392505050565b6000602082840312156103f357600080fd5b5035919050565b600060018201610433577f4e487b7100000000000000000000000000000000000000000000000000000000600052601160045260246000fd5b506001019056fea264697066735822122077a40b9a660198cd81e38c8a6357b41bd4fbf4d312a842a3a94831ad192fa5b464736f6c634300081c0033",
  "immutableReferences": {},
  "source": "// SPDX-License-Identifier: MIT\r\npragma solidity >=0.4.22 <0.9.0;\r\n\r\nimport \"@chainlink/contracts/src/v0.8/interfaces/AggregatorV2V3Interface.sol\";\r\n\r\n/**\r\n * @title MockV3Aggregator\r\n * @notice Based on the FluxAggregator contract\r\n * @notice Use this contract when you need to test\r\n * other contract's ability to read data from an\r\n * aggregator contract, but how the aggregator got\r\n * its answer is unimportant\r\n */\r\ncontract MockV3Aggregator is AggregatorV2V3Interface {\r\n  uint256 constant public override version = 0;\r\n\r\n  uint8 public override decimals;\r\n  int256 public override latestAnswer;\r\n  uint256 public override latestTimestamp;\r\n  uint256 public override latestRound;\r\n\r\n  mapping(uint256 => int256) public override getAnswer;\r\n  mapping(uint256 => uint256) public override getTimestamp;\r\n  mapping(uint256 => uint256) private getStartedAt;\r\n\r\n  constructor(\r\n    uint8 _decimals,\r\n    int256 _initialAnswer\r\n  ) public {\r\n    decimals = _decimals;\r\n    updateAnswer(_initialAnswer);\r\n  }\r\n\r\n  function updateAnswer(\r\n    int256 _answer\r\n  ) public {\r\n    latestAnswer = _answer;\r\n    latestTimestamp = block.timestamp;\r\n    latestRound++;\r\n    getAnswer[latestRound] = _answer;\r\n    getTimestamp[latestRound] = block.timestamp;\r\n    getStartedAt[latestRound] = block.timestamp;\r\n  }\r\n\r\n  function updateRoundData(\r\n    uint80 _roundId,\r\n    int256 _answer,\r\n    uint256 _timestamp,\r\n    uint256 _startedAt\r\n  ) public {\r\n    latestRound = _roundId;\r\n    latestAnswer = _answer;\r\n    latestTimestamp = _timestamp;\r\n    getAnswer[latestRound] = _answer;\r\n    getTimestamp[latestRound] = _timestamp;\r\n    getStartedAt[latestRound] = _startedAt;\r\n  }\r\n\r\n  function getRoundData(uint80 _roundId)\r\n    external\r\n    view\r\n    override\r\n    returns (\r\n      uint80 roundId,\r\n      int256 answer,\r\n      uint256 startedAt,\r\n      uint256 updatedAt,\r\n      uint80 answeredInRound\r\n    )\r\n  {\r\n    return (\r\n      _roundId,\r\n      getAnswer[_roundId],\r\n      getStartedAt[_roundId],\r\n      getTimestamp[_roundId],\r\n      _roundId\r\n    );\r\n  }\r\n\r\n  function latestRoundData()\r\n    external\r\n    view\r\n    override\r\n    returns (\r\n      uint80 roundId,\r\n      int256 answer,\r\n      uint256 startedAt,\r\n      uint256 updatedAt,\r\n      uint80 answeredInRound\r\n    )\r\n  {\r\n    return (\r\n      uint80(latestRound),\r\n      getAnswer[latestRound],\r\n      getStartedAt[latestRound],\r\n      getTimestamp[latestRound],\r\n      uint80(latestRound)\r\n    );\r\n  }\r\n\r\n  function description()\r\n    external\r\n    view\r\n    override\r\n    returns (string memory)\r\n  {\r\n    return \"v0.6/tests/MockV3Aggregator.sol\";\r\n  }\r\n}\r\n\r\n// MockOracle\r\n// Function signatures, event signatures, log topics",
  "sourcePath": "c:\\Users\\tgood\\Documents\\GitHub\\Defi-Lending-Borrowing\\contracts\\test\\MockV3Aggregator.sol",
  "compiler": {
    "name": "solc",
    "version": "0.8.28+commit.7893614a.Emscripten.clang"
  },
  "schemaVersion": "3.4.16",
  "updatedAt": "2024-11-19T03:57:03.856Z",
  "devdoc": {
    "kind": "dev",
    "methods": {},
    "title": "MockV3Aggregator",
    "version": 1
  },
  "userdoc": {
    "kind": "user",
    "methods": {},
    "notice": "Based on the FluxAggregator contractUse this contract when you need to test other contract's ability to read data from an aggregator contract, but how the aggregator got its answer is unimportant",
    "version": 1
  }
}